:020000021000EC
:10F0000000000120C1AB0200E9AB0200EBAB020043
:10F01000EDAB0200EFAB0200F1AB0200000000001C
:10F02000000000000000000000000000F3AB020040
:10F03000F5AB020000000000F7AB0200F9AB0200E4
:10F04000D11B0200FBAB0200FBAB0200B15302007C
:10F05000FBAB0200DDA2020015270200D13D020039
:10F06000FBAB0200FBAB0200FBAB0200FBAB020000
:10F07000FBAB0200013B0200FBAB0200FBAB02005A
:10F08000FBAB0200F5930200FBAB0200FBAB0200FE
:10F0900035940200FBAB0200ADAA0200FBAB0200FC
:10F0A000FBAB0200FBAB0200FBAB020019A00200AD
:10F0B000E1380200692D020000000000000000009D
:10F0C000FBAB0200FBAB0200FBAB0200FBAB0200A0
:10F0D000FBAB0200FBAB0200FBAB02000000000038
:10F0E0000000000000000000000000000000000020
:10F0F0000000000000000000000000000000000010
:10F1000000000000000000000000000000000000FF
:10F1100000000000000000000000000000000000EF
:10F1200000000000000000000000000000000000DF
:10F1300000000000000000000000000000000000CF
:10F1400000000000000000000000000000000000BF
:10F1500000000000000000000000000000000000AF
:10F16000000000000000000000000000000000009F
:10F17000000000000000000000000000000000008F
:10F18000000000000000000000000000000000007F
:10F19000000000000000000000000000000000006F
:10F1A000000000000000000000000000000000005F
:10F1B000000000000000000000000000000000004F
:10F1C000000000000000000000000000000000003F
:10F1D000000000000000000000000000000000002F
:10F1E000000000000000000000000000000000001F
:10F1F000000000000000000000000000000000000F
:10F2000010B5054C237833B9044B13B10448AFF360
:10F2100000800123237010BD68440020000000001E
:10F22000482C060008B5064B1BB106480649AFF34B
:10F2300000800648036813B1054B03B1984708BD29
:10F2400000000000482C06006C44002044440020CC
:10F2500000000000154B002B08BF134B9D46A3F583
:10F26000803A00218B460F461348144A121A30F098
:10F27000A2F90F4B002B00D098470E4B002B00D06B
:10F2800098470020002104000D000D48002802D0FE
:10F290000C48AFF3008030F035F92000290012F05F
:10F2A0009FFA30F01BF900BF0000080000000120A9
:10F2B0000000000000000000684400202C930020A3
:10F2C000000000000000000073DF7047184600BF18
:10F2D00080B400AF034B1B781846BD465DF8047B35
:10F2E000704700BF5E45002080B485B000AF7860F5
:10F2F0000023FB600AE07A68FB6813441B78002B4C
:10F3000001D0012306E0FB680133FB60FB68052B9D
:10F31000F1D9002318461437BD465DF8047B7047C9
:10F3200080B483B000AF0346FB71FB79591C084BD6
:10F3300083FB01235A10CB17D21A13469B001344A8
:10F34000CA1AD3B218460C37BD465DF8047B704725
:10F350006766666680B483B000AF78607B68DB7BED
:10F36000012B03D17B689A88034B1A800C37BD466A
:10F370005DF8047B704700BF5045002080B584B025
:10F3800000AF78600D4B00221A707B689A880C4B96
:10F390001B889A420ED1012000F06AFAF860FB68DF
:10F3A000002B07D0074B1B68002B03D0054B1B68B5
:10F3B000F86898471037BD4680BD00BF5C45002007
:10F3C000504500205845002080B584B000AF7860DB
:10F3D0007B681B7A002B00D014E00C4B1B7818467E
:10F3E000FFF79EFF0346184600F042FAF860FB68FC
:10F3F000002B07D0064B1B68002B03D0044B1B6867
:10F40000F86898471037BD4680BD00BF874400208C
:10F410005845002080B582B000AF3B1D184608F06B
:10F42000CBF97B68002B0CBF00230123DBB218460D
:10F430000837BD4680BD00BF80B584B000AF03462D
:10F44000FB711C48FFF750FF0346FB73FB79013B40
:10F45000032B29D801A252F823F000BF6DF401005C
:10F460007FF4010091F401009DF40100124B5B78E0
:10F47000002B04D0FB7B002B01D0012315E00E4BA9
:10F480009B78002B04D0FB7B002B01D002230CE0E7
:10F49000094BDB78002B01D0032306E0064B1B79D8
:10F4A000002B01D0042300E0002318461037BD468E
:10F4B00080BD00BFAD4400208844002080B483B0EC
:10F4C00000AF78600A4B01221A707B68094A5A60C3
:10F4D0007B6801221A707B6800229A817B68002277
:10F4E0005A81002318460C37BD465DF8047B7047EF
:10F4F00086440020AC44002080B483B000AF786024
:10F500000C4B02221A707B680B4A5A607B680122FE
:10F510001A700A4BDB689AB27B689A81074B9B682A
:10F520009AB27B685A81002318460C37BD465DF8B5
:10F53000047B704786440020AC44002088440020AF
:10F5400080B584B000AF78601A4B1B699AB27B68B3
:10F550005A81184B5B699AB27B689A81154B1B786C
:10F56000002B1FD0144B1B7883F00103DBB2002B60
:10F5700018D0FFF7ADFE0346002B13D07B680222A4
:10F580001A720E4B0422DA700C48002101F05AFD69
:10F59000F860FB68002B01D0FB6807E0084B0522F0
:10F5A0001A7002E0064B03221A7000231846103727
:10F5B000BD4680BD884400205C450020B844002042
:10F5C0008644002080B584B000AF78601A4B9B69F8
:10F5D0009AB27B685A81184BDB699AB27B689A8130
:10F5E000154B1B78002B1FD0144B1B7883F00103A5
:10F5F000DBB2002B18D0FFF76BFE0346002B13D0B5
:10F600007B6802221A720E4B0422DA700C48002129
:10F6100001F018FDF860FB68002B01D0FB6807E0E3
:10F62000084B06221A7002E0064B04221A700023CF
:10F6300018461037BD4680BD884400205C45002038
:10F64000B84400208644002080B483B000AF034655
:10F65000FB71044BFA791A700C37BD465DF8047BD8
:10F66000704700BFA8440020B0B588B000AFF86074
:10F67000B9607A603B60FB68002B02D07B68002B8E
:10F6800001D10E23D3E06C4B01221A706B4B002288
:10F690001A706B4A7B6814461D460FCD0FC495E85F
:10F6A0000F0084E80F00674B00221A70664B3A681F
:10F6B0001A60664B3A6B1A60654B4FF6FF721A8000
:10F6C0006448002107222FF076FF634800213C2286
:10F6D0002FF071FFFB681A785F4B1A70FB689A78FD
:10F6E0005D4B9A70FB68DA785B4BDA70FB685A788E
:10F6F000594B5A70584BFA681033103292E8030095
:10F7000083E80300544BFA680833083292E8030098
:10F7100083E80300504BFA681833183292E803006C
:10F7200083E80300FB685B6A002B28D04A4B4B4AF6
:10F730005A624A4B4A4A9A60474B5B6AFA68526A75
:10F7400012881A80444B5B6AFA68526A92889A80DF
:10F750000023FB610CE0FB685B6A9A68FB69134459
:10F760001A783F49FB690B441A70FB690133FB614E
:10F77000394B5B6A9B881A46FB699A42EBD8FB6857
:10F780009B6A002B32D0374B374A9A60324B354A4E
:10F790009A62314B9B6A344A9A602F4B9B6AFA6893
:10F7A000926A92889A802C4B9B6AFA68926A1288B5
:10F7B0001A800023BB610CE0FB689B6A9A68BB69F6
:10F7C00013441A782849BB690B441A70BB6901338A
:10F7D000BB61214B9B6A9B881A46BB699A42EBD856
:10F7E000FB6893F82C201C4B83F82C20FB681B6AC9
:10F7F000002B0ED0184B1D4A1A62174B1B6AFA6871
:10F80000126A52885A80144B1B6AFA68126A12886C
:10F810001A80FB685B68002B03D0FB685A680E4BAC
:10F820005A600D48B96801F00DFC78617B69184693
:10F830002037BD46B0BD00BF84440020874400206F
:10F8400088440020A844002054450020584500204A
:10F8500050450020AC440020B8440020F44400206F
:10F8600000450020204500202C4500204C4500206C
:10F8700080B588B000AF0346FB71664B1B7883F000
:10F880000103DBB2002B01D00823BFE0624BFA7901
:10F890001A70FFF7BFFD0346002B04D05F4B012217
:10F8A0001A700023B2E05E48002107222FF083FE89
:10F8B0005C4B5B78002B03D0574B1B78012B0FD090
:10F8C000584B9B78002B03D0534B1B78012B07D050
:10F8D000544B9B78002B12D04F4B1B78022B0ED130
:10F8E000514B1B68002B07D0504B01221A704E4B16
:10F8F0001B680820984702E04C4B00221A70FB79E5
:10F900001846FFF799FD03461A46434B1A70464BBB
:10F910001B68002B1DD0404B1B78032B03D03E4BA4
:10F920001B78042B15D13F4B1B78002B11D0404B7B
:10F930001B7883F00103DBB2002B0AD03D4B002281
:10F940001A703D4B01221A70374B1B6807209847ED
:10F9500002E0394B00221A7007F10C03184600210F
:10F9600010222FF028FE00233B7300233B752A4B07
:10F970001B78042B2CD801A252F823F0C9F90100FE
:10F9800091F901009FF90100ADF90100BBF90100F7
:10F9900007F10C031846FFF791FDF86119E007F134
:10F9A0000C031846FFF7A8FDF86112E007F10C03FD
:10F9B0001846FFF7C5FDF8610BE007F10C03184688
:10F9C000FFF700FEF86104E01C4B00221A7000E013
:10F9D00000BF114B1B78002B0DD0194B1B7807F182
:10F9E0000C0210461946FFF76FFCF861FB69002B0B
:10F9F00001D0FB690AE00C4B1B68002B05D00A4BB9
:10FA00001B680E4A12781046984700231846203784
:10FA1000BD4680BD844400208744002085440020EA
:10FA2000AC4400208844002054450020B444002009
:10FA30005C4500205E4500205D4500208644002096
:10FA4000A844002080B582B000AF78607B681B8836
:10FA5000112B08D01B2B0AD0102B00D00BE078689C
:10FA6000FFF778FC07E07868FFF788FC03E0786828
:10FA7000FFF7AAFC00BF0837BD4680BD80B584B043
:10FA800000AF78607B68023B012B19D80E4B1B78C6
:10FA9000002B14D00C4B00221A700C4B1B7818460C
:10FAA000FFF7E6FEF860FB68002B08D0084B1B68E8
:10FAB000002B04D0064B1B68F868984701E000E073
:10FAC00000BF1037BD4680BD85440020874400201C
:10FAD00058450020A0DF7047184600BFA2DF7047DE
:10FAE000184600BFA3DF7047184600BFA4DF704769
:10FAF000184600BFA6DF7047184600BF80B483B029
:10FB000000AF786039603B689A887B685A820C370E
:10FB1000BD465DF8047B704780B483B000AF786069
:10FB200039607B684FF6FF725A820C37BD465DF82C
:10FB3000047B704780B584B000AF786039607B6823
:10FB40001B7D002B24D03B680633FB60FB681A88C2
:10FB50007B685B899A421BD1FB685B89022B17D1BA
:10FB60007B681B68002B13D0FB680C33184601F030
:10FB7000FFFD0346002B02D000233B7201E001236E
:10FB80003B727B681B6807F108027868114698474A
:10FB90001037BD4680BD00BF80B582B000AF786031
:10FBA00039607B68002B02D03B68002B00D117E046
:10FBB0003B681B88112B09D0502B0CD0102B00D088
:10FBC0000EE078683968FFF799FF09E078683968CE
:10FBD000FFF7A2FF04E078683968FFF7ABFF00BFCA
:10FBE0000837BD4680BD00BF80B594B000AF7860D7
:10FBF00039607B681B7D002B1FD007F12803184656
:10FC0000002103222FF0D7FC97F82830012262F35D
:10FC1000030387F8283097F82830012262F307138E
:10FC200087F828303B685B7B87F8293097F82A30C3
:10FC3000012262F3420387F82A3007F12C031846A9
:10FC400000211C222FF0B7FC97F82C3043F0020360
:10FC500087F82C307B681B7D03F00103DAB297F83C
:10FC60002C3062F3041387F82C3000233B6300230D
:10FC7000BB630023FB637B681B7D002B02D007F175
:10FC8000280300E000233B6400237B640123BB7452
:10FC900042F619233B8207F10C0318460021032288
:10FCA0002FF089FC3B689B7B3B733B68DB7B7B7362
:10FCB000BB7B012262F34203BB73BB7B6FF3C303C5
:10FCC000BB73BB7B6FF30413BB73BB7B6FF300038E
:10FCD000BB733B681B7BFB7207F1140318460021C2
:10FCE00014222FF068FC07F110037B6107F10C036D
:10FCF000BB610123BB830023FB8301233B8407F10A
:10FD00000B037B627B6898887B68063307F12C01C4
:10FD100007F11402FFF7E2FEF864FB6C002B01D040
:10FD2000FB6C63E03B689B68002B5BD00123BB74DA
:10FD300042F608133B8207F10C0318460021032208
:10FD40002FF039FC3B681B7C3B737B7B6FF3030319
:10FD50007B737B7B6FF307137B73BB7B012262F3A7
:10FD60004203BB73BB7B6FF3C303BB73BB7B6FF3FC
:10FD70000413BB73BB7B6FF30003BB733B689B68CF
:10FD800007F108021046194601F01EFD034687F8E8
:10FD90004B3007F114031846002114222FF00BFCFE
:10FDA00007F110037B6107F10C03BB6197F84B303F
:10FDB0009BB2BB830023FB83BB8B3B8407F108030F
:10FDC0007B627B68D9887B680E3307F11402084692
:10FDD00011461A46FFF786FEF864FB6C002B04D030
:10FDE000FB6C03E07B680022DA8100231846503761
:10FDF000BD4680BD80B584B000AF786039607B6857
:10FE0000002B02D03B68002B01D10E2327E03B687A
:10FE10001A687B681A607B684FF6FF725A823B68EB
:10FE20001A797B681A757B68FF221A740123BB72EA
:10FE300041F60F033B817B68043307F10802012080
:10FE400011461A46FFF746FEF860FB68002B01D00A
:10FE5000FB6804E078683968FFF7C6FE0346184679
:10FE60001037BD4680BD00BF80B58AB000AF786056
:10FE70000B46FB707B68002B01D10E2352E0002360
:10FE80007B627B681A7CFB789A424AD007F11C039C
:10FE90001846002108222FF08EFB0123BB8300238C
:10FEA000FB83FB1C3B627B68598A7B68DA8807F11D
:10FEB0001C03084611461A46FFF718FE78627B6A53
:10FEC000002B09D1FA787B681A747B685A8A4FF63E
:10FED000FF739A4223D001E07B6A23E07B681B7D9D
:10FEE000002B1CD007F10C031846002110222FF024
:10FEF00062FB7B68DB88BB810123BB73FB8B3B828E
:10FF000007F11C037B613B6ABB617B685A8A07F17E
:10FF10000C0310461946FFF7EDFD786201E0082357
:10FF20007B627B6A18462837BD4680BD80B483B0AB
:10FF300000AF0346FB71094B97F907205209F97985
:10FF400001F01F01012000FA01F1203243F82210D4
:10FF50000C37BD465DF8047B704700BF00E100E050
:10FF600080B483B000AF0346FB71094B97F90720BB
:10FF70005209F97901F01F01012000FA01F1603204
:10FF800043F822100C37BD465DF8047B704700BF74
:10FF900000E100E080B400AFBFF34F8F054A054B8E
:10FFA000DB6803F4E061044B0B43D360BFF34F8F76
:10FFB00000BFFDE700ED00E00400FA05A0DF704798
:10FFC000184600BFA2DF7047184600BFA6DF704783
:10FFD000184600BFA8DF7047184600BF62DF7047B1
:10FFE000184600BF3ADF7047184600BF3BDF704736
:10FFF000184600BF11DF7047184600BF13DF704777
:020000022000DC
:10000000184600BF80B582B000AF0F4B1B683B6045
:1000100000237B6011E07B68012202FA03F31A4699
:100020003B681340002B05D07B68DBB25BB21846FF
:10003000FFF77CFF7B6801337B607B681F2BEAD96D
:100040000837BD4680BD00BF00E100E080B582B04A
:1000500000AF00204FF0FF31FFF7C8FF78607B68EA
:10006000002B01D07B6825E00020B121FFF7BAFF0B
:1000700078607B68002B01D07B681BE0FFF7BAFF3C
:1000800078607B68002B01D07B6813E04FF0102371
:100090005B691846FFF7B2FF78607B68002B01D0E0
:1000A0007B6807E01620FFF75BFFFFF7ABFFFFF76A
:1000B00071FF002318460837BD4680BD80B584B067
:1000C00000AF78607B681B69002B08D000233B736E
:1000D0007B681B6907F10C027868114698477B68BA
:1000E00001221A751037BD4680BD00BF80B592B0A1
:1000F00000AF7860396007F12C0300221A600433E6
:1001000000221A60043300221A60043300221A60AD
:10011000043300221A60043300221A6004330022E0
:100120001A60043300233B85002387F82A3007F147
:10013000140300221A60043300221A6004330022E0
:100140001A60043300221A60043300221A60043358
:1001500000233B820023BB7497F82830012262F30E
:10016000030387F8283097F82830012262F3071339
:1001700087F8283097F82930012262F3030387F8C3
:10018000293097F82930012262F3071387F82930C4
:1001900097F82A30012262F3420387F82A3097F851
:1001A0002C3043F0200387F82C3097F82C3043F0A4
:1001B000080387F82C3000233B630023BB63002334
:1001C000FB6307F128033B6400237B647B681B7897
:1001D000BB730323BB813B7C012262F303033B74AB
:1001E0003B7C012262F307133B747B7C012262F3A8
:1001F00003037B747B7C012262F307137B74BB7C5B
:10020000012262F34203BB74BB7C6FF3C303BB7474
:10021000BB7C43F01003BB74BB7C43F00103BB7495
:1002200007F10C037B6107F11003BB610023BB8363
:100230000023FB8317233B8400237B627B68588861
:100240007B68063307F12C0107F11402FFF7BAFEB1
:10025000034618464837BD4680BD00BF90B589B0FB
:1002600000AF78603960284B07F1080418685968B6
:100270009A68DB680FC47B68002B01D10E233EE037
:100280003B68002B01D10E2339E07B684FF6FF72EB
:100290009A803B681A687B681A617B6800221A752D
:1002A0007B6800229A730123BB764FF659633B8328
:1002B0007B68023307F11802012011461A46FFF746
:1002C0007DFEF861FB69002B01D0FB6917E07B68BC
:1002D00007F1080210461946FFF780FEF861FB6936
:1002E000002B01D0FB690AE078683968FFF7FEFE51
:1002F000F861FB69002B01D0FB6900E00023184680
:100300002437BD4690BD00BF2073050080B588B07E
:1003100000AF786013460A46FA703B8007F1080385
:100320001846002110222FF046F90323FB832023D7
:100330003B76FB787B763B88DBB2BB767B68DB88E1
:100340003B810223BB720023BB8107F11E033B618B
:1003500007F118037B617B689A8807F10803104650
:100360001946FFF733FE2037BD4680BD80B588B003
:1003700000AF786039600423FB8307F10803184657
:10038000002110222FF017F902233B727B689B7B20
:10039000002B06D0BB7B43F00103BB730023BB8162
:1003A00002E040F2FD13BB817B689A8807F10803E5
:1003B00010461946FFF70EFEB861BB69112BF3D04A
:1003C000BB89002B1FD10320104907F09BFE3B681F
:1003D0001B7B012B02D10123FB8302E00223FB8361
:1003E00000BF3B681A7BFB8B786811461A46FFF703
:1003F0008DFFFB8B012B06D13B681B7B012B02D1B0
:100400007868FFF75BFE2037BD4680BD307305007E
:1004100080B584B000AF786039603B689A887B68AB
:100420009B889A4200D01EE03B680633FB60FB6865
:100430001B78022B17D1FB685A887B68DB889A42AD
:1004400011D1FB681B7A042B0DD0FB681B7A062B9D
:1004500009D0FB681B7A052B05D0FB68023378684E
:100460001946FFF783FF1037BD4680BD80B483B0C7
:1004700000AF786039603B689A887B689A800C3757
:10048000BD465DF8047B704780B483B000AF7860F0
:1004900039607B689A883B689B889A4200D003E069
:1004A0007B684FF6FF729A800C37BD465DF8047B7F
:1004B000704700BF90B585B000AF786039603B6889
:1004C0000633FB60FB681A887B685B899A4200D020
:1004D0002EE0FB685B89022B2AD1FB680C3318469F
:1004E00001F05CF903461A467B689A737B689B7B34
:1004F0001C46FB680C33184601F03AF9034603200A
:100500000D49224607F024FE7B681B69002B0FD0A3
:100510007B689B7B002B02D001233B7201E002230E
:100520003B727B681B6907F108027868114698479F
:100530001437BD4690BD00BF5C73050080B584B024
:1005400000AF786039603B680633FB60FB681A884F
:100550007B68DB889A4205D17B681B7D002B01D02C
:10056000FFF774FD1037BD4680BD00BF80B582B077
:1005700000AF786039607B68002B00D12CE03B68CD
:10058000002B00D128E03B681B88502B1AD0502B41
:1005900004DC102B07D0112B0AD01DE0512B0CD0FE
:1005A000532B14D018E078683968FFF75FFF13E029
:1005B00078683968FFF768FF0EE078683968FFF7F8
:1005C00027FF09E078683968FFF774FF04E078686E
:1005D0003968FFF7B3FF00BF0837BD4680BD00BFD5
:1005E0006DDF7047184600BF72DF7047184600BFC6
:1005F00079DF7047184600BF7DDF7047184600BF9F
:1006000064DF7047184600BF80B483B000AF034674
:100610003960FB80FB88DAB23B681A703B680133B3
:10062000FA88120A92B2D2B21A70022318460C3714
:10063000BD465DF8047B704780B588B000AFF860B8
:10064000B9601346FB80BB681B8803F10902FB8875
:100650009A4201D90C234EE007F114031846FFF724
:10066000BFFFF861FB69002B01D0FB6943E0BB6869
:100670001B88FA68134408221A70BB681B88013370
:100680009AB2BB681A80BB681B88FA6813441B22A5
:100690001A70BB681B8801339AB2BB681A80BB68AA
:1006A0001B88FA681A4407F11403013310461946EF
:1006B00006222EF05CFFBB681B8806339AB2BB682B
:1006C0001A803B7DC3F34603DBB2002B06D1BB6827
:1006D0001B88FA68134400221A7005E0BB681B8867
:1006E000FA68134401221A70BB681B8801339AB25E
:1006F000BB681A80002318462037BD4680BD00BF66
:1007000080B588B000AFF860B9607A607B80FB6824
:100710001B78012B05D1FB685B78002B01D10723E7
:1007200073E07B681B889A1C7B889A420DD8FB6813
:100730001B78012B0BD17B681B881A46FB685B7802
:1007400013449A1C7B889A4201D90C235DE07B6894
:100750001B887A88D31A9BB2023BBB83BB8BFB827C
:100760007B681B880233BA681A4407F116031046E7
:100770001946FFF741FFB861BB69002B01D0BB6987
:1007800043E0FB681B78022B06D1FB8ABA8B9A42A6
:1007900002D30923FB7710E00823FB77FB681B7863
:1007A000012B08D1FB685B78BA8B9A4203D3FB68B4
:1007B0005B78FB8201E0BB8BFB82FB8AFE2B01D9BD
:1007C0000C2322E07B681B88BA681344FA8AD2B2F1
:1007D0000132D2B21A707B681B8801339AB27B68EF
:1007E0001A807B681B88BA681344FA7F1A707B688A
:1007F0001B8801339AB27B681A807B681A88FB8A4F
:1008000013449AB27B681A80002318462037BD46ED
:1008100080BD00BF90B587B000AFF860B9601346E7
:10082000FB80BB681B881A1DFB889A4201D90C23E8
:1008300033E007F112031846FFF7DAFE78617B69AF
:10084000002B01D07B6928E0BB681B88FA68134441
:1008500003221A70BB681B8801339AB2BB681A80E6
:10086000BB681B88FA68134419221A70BB681B887E
:1008700001339AB2BB681A80BB681C887A8ABB684D
:100880001B88F9680B4410461946FFF7BDFE034666
:1008900023449AB2BB681A80002318461C37BD4611
:1008A00090BD00BF80B485B000AFB9607A600246E9
:1008B000FA73BB817B681B88DA1CBB899A4201D919
:1008C0000C2324E07B681B88BA68134402221A7048
:1008D0007B681B8801339AB27B681A807B681B880F
:1008E000BA68134401221A707B681B8801339AB2DC
:1008F0007B681A807B681B88BA681344FA7B1A707D
:100900007B681B8801339AB27B681A8000231846E3
:100910001437BD465DF8047B704700BF80B485B0D6
:1009200000AFB9607A600246FA73BB817B681B88AE
:10093000DA1CBB899A4201D90C2324E07B681B880E
:10094000BA68134402221A707B681B8801339AB27A
:100950007B681A807B681B88BA6813440A221A7065
:100960007B681B8801339AB27B681A807B681B887E
:10097000BA681344FA7B1A707B681B8801339AB2F9
:100980007B681A80002318461437BD465DF8047B47
:10099000704700BF80B58AB000AFF8607B600B463F
:1009A000FB721346BB72002387F823303B6B1B8816
:1009B0003B8400237B6268E0FB685A687B6A9B008B
:1009C0001A4407F110031068186007F1100207F1CC
:1009D0001703104619460022FFF712FEF861FB6963
:1009E000002B01D0FB696DE0FB7DBA7A9A4249D1B8
:1009F00097F82330002B01D0002300E00223FB7680
:100A00003B6B1B881A46FB7D1A44FB7E1A44BB8E47
:100A10009A4201DD0C2355E097F8233083F001035F
:100A2000DBB2002B14D03B6B1B8801339AB23B6BBB
:100A30001A803B6B1B887A681344FA7A1A703B6BF6
:100A40001B8801339AB23B6B1A80012387F823304D
:100A50003B6B1B887A68134407F1100107F11702FA
:100A6000084611461A46FFF7CBFDF861FB69002BDB
:100A700001D0FB6926E03B6B1A88FB7D13449AB2D8
:100A80003B6B1A807B6A01337B62FB681B881A46CA
:100A90007B6A9A4290DC97F82330002B11D03B6B95
:100AA0001A883B8CD31A9BB2013B3B833B8BFF2BB9
:100AB00001D90C2306E03B8C7A6813443A8BD2B2FE
:100AC0001A70002318462837BD4680BD80B588B00F
:100AD00002AFF8607B600B46FB721346BB72FB7A79
:100AE0003A6A0092BA8C0192F868194602227B6831
:100AF000FFF750FF78617B69002B01D07B6911E023
:100B0000BB7A3A6A0092BA8C0192F86819461022B0
:100B10007B68FFF73FFF78617B69002B01D07B6921
:100B200000E0002318461837BD4680BD80B483B06E
:100B300000AF78607B681B88052B0AD97B681B880F
:100B4000B3F5486F07D97B681A884FF6FF739A424E
:100B500001D0072325E07B685B88052B0AD97B68D9
:100B60005B88B3F5486F07D97B685A884FF6FF73E7
:100B70009A4201D0072314E07B681A884FF6FF736E
:100B80009A420DD07B685A884FF6FF739A4207D07D
:100B90007B681A887B685B889A4201D9072300E04A
:100BA000002318460C37BD465DF8047B704700BF34
:100BB00090B587B000AFF860B9607A607B807B68E1
:100BC0001B889A1D7B889A4201D90C2343E0F86860
:100BD000FFF7ACFF78617B69002B01D07B693AE0BD
:100BE0007B681B88BA68134405221A707B681B88CF
:100BF00001339AB27B681A807B681B88BA681344F9
:100C000012221A707B681B8801339AB27B681A80A3
:100C10007B681C88FB681A887B681B88B9680B4452
:100C200010461946FFF7F0FC034623449AB27B684E
:100C30001A807B681C88FB685A887B681B88B968A7
:100C40000B4410461946FFF7DFFC034623449AB2D3
:100C50007B681A80002318461C37BD4690BD00BF34
:100C600090B587B000AFF860B9607A607B80FB68B0
:100C70009B8802337B617B681B881A467B6913441F
:100C80009A1C7B889A4201D90C2350E07B69FE2B89
:100C900001D90C234BE07B681B88BA6813447A693E
:100CA000D2B20132D2B21A707B681B8801339AB279
:100CB0007B681A807B681B88BA681344FF221A700D
:100CC0007B681B8801339AB27B681A807B681C881A
:100CD000FB681A887B681B88B9680B441046194664
:100CE000FFF792FC034623449AB27B681A80FB68A4
:100CF0009B88002B1AD0FB689B68002B01D107232F
:100D000015E07B681B88BA68D118FB689A68FB6895
:100D10009B88084611461A462EF029FC7B681A88E3
:100D2000FB689B8813449AB27B681A80002318469C
:100D30001C37BD4690BD00BF90B589B000AFF860CC
:100D4000B9607A607B80FB689B6A002B01D1072326
:100D500069E00023FB775FE0FB68996AFA7F13463E
:100D60005B0013449B000B44BB61BB699B8802334F
:100D70007B617B69FE2B01D90C2354E07B681B88C7
:100D8000BA6813447A69D2B20132D2B21A707B685F
:100D90001B8801339AB27B681A807B681B88BA680B
:100DA000134416221A707B681B8801339AB27B6841
:100DB0001A807B681C88BB691A887B681B88B968A5
:100DC0000B4410461946FFF71FFC034623449AB212
:100DD0007B681A80BB699B88002B1AD0BB699B6813
:100DE000002B01D107231EE07B681B88BA68D1184D
:100DF000BB699A68BB699B88084611461A462EF063
:100E0000B6FB7B681A88BB699B8813449AB27B68DF
:100E10001A80FB7F0133FB77FB6893F82C30FA7F55
:100E20009A4299D3002318462437BD4690BD00BF8F
:100E300080B588B002AFF860B9607A6000237B614A
:100E40007B681B887B827B6800221A80FB6893F892
:100E50002D30002B0BD07B8AB86879681A46FFF7D3
:100E6000EBFB78617B69002B01D07B69BFE0FB68FD
:100E70009B78002B0BD07B8AB86879681A46FFF7FD
:100E8000C9FC78617B69002B01D07B69AFE0FB680E
:100E9000DB78002B0FD0FB68DB78DBB25AB27B8AA1
:100EA0001046B9687A68FFF7FDFC78617B69002B12
:100EB00001D07B699BE0FB685B68002B0FD0FB686F
:100EC0005B681B785AB27B8A1046B9687A68FFF76C
:100ED00025FD78617B69002B01D07B6987E0FB6889
:100EE0001B89002B11D0FB6808337A6800927A8A3C
:100EF0000192184602210622BB68FFF7E7FD7861E0
:100F00007B69002B01D07B6971E0FB681B8A002B99
:100F100011D0FB6810337A6800927A8A01921846E1
:100F200003210722BB68FFF7D1FD78617B69002BA5
:100F300001D07B695BE0FB681B8B002B11D0FB6849
:100F400018337A6800927A8A019218461421152281
:100F5000BB68FFF7BBFD78617B69002B01D07B6923
:100F600045E0FB681B6A002B0DD0FB681A6A7B8A80
:100F70001046B9687A68FFF71BFE78617B69002B21
:100F800001D07B6933E0FB685B6A002B0DD0FB6806
:100F90005A6A7B8A1046B9687A68FFF761FE786101
:100FA0007B69002B01D07B6921E0FB6893F82C3032
:100FB000002B0BD07B8AF868B9687A68FFF7BCFE13
:100FC00078617B69002B01D07B6910E0FB681B789E
:100FD000002B0BD07B8AF868B9687A68FFF790FB22
:100FE00078617B69002B01D07B6900E07B69184642
:100FF0001837BD4680BD00BF80B483B000AF7860B5
:101000007B68DB7803F00403002B01D1072300E0A9
:10101000002318460C37BD465DF8047B704700BFBF
:1010200080B483B000AF78607B68DB78002B01D0A0
:10103000072300E0002318460C37BD465DF8047B0B
:10104000704700BF80B596B000AF786039601F234D
:10105000A7F84A301F23A7F848307B68002B1BD025
:101060007868FFF7C9FFF864FB6C002B01D0FB6CBC
:1010700047E007F1280207F14A03786811461A464B
:10108000FFF7D6FEF864FB6C002B01D0FB6C38E058
:1010900007F128037B6504E000237B650023A7F8A4
:1010A0004A303B68002B1BD03868FFF7B9FFF86463
:1010B000FB6C002B01D0FB6C23E007F1080207F169
:1010C0004803386811461A46FFF7B2FEF864FB6C15
:1010D000002B01D0FB6C14E007F108033B6504E032
:1010E00000233B650023A7F84830B7F84A30DAB24E
:1010F000B7F84830DBB2786D11463A6DFFF774FAF5
:10110000034618465837BD4680BD00BF75DF70479F
:10111000184600BF76DF7047184600BF7ADF704779
:10112000184600BF7BDF7047184600BF80B483B00D
:1011300000AF78607B685A88094B1B889A4207D3B6
:101140007B685A88064B5B889A4201D8012300E0ED
:10115000002318460C37BD465DF8047B704700BF7E
:101160007C45002080B586B000AF7860264B1A8899
:101170004FF6FF739A4244D0244B1B780133DAB206
:10118000224B1A70224B1A7B204B1B789A4213D3A6
:101190001D4B1B8818461F49FFF7B8FF78617B6914
:1011A000002B08D01A4B9B69002B04D0184B9B696D
:1011B0007869984725E024E0144B00221A70144BFC
:1011C0001B7C002B11D0104B1B8818463B21FFF7CE
:1011D000A1FF38613B69002B07D00D4B9B69002BA9
:1011E00003D00B4B9B6938699847094B5B69002B0F
:1011F00007D000233B73064B5B6907F10C021046D6
:1012000098471837BD4680BD86450020844500209C
:10121000604500207C450020B0B584B000AF786008
:101220001C4A7B6814461D460FCD0FC495E8070085
:1012300084E80700184B00221A707B681B68002B9B
:101240000ED07B681A68154B1068516803C31348A9
:10125000FFF764FFF860FB68002B0AD0FB6815E01D
:101260000E48FFF75FFFF860FB68002B01D0FB68BA
:101270000CE00B4B4FF6FF721A800A4B00221A70DB
:1012800009480021094A08F011F9034618461037A9
:10129000BD46B0BD60450020B04500207C45002023
:1012A00086450020844500209C73050065110200DE
:1012B00080B584B000AF2448FFF738FF034683F0C1
:1012C0000103DBB2002B2ED0204B1B78002B0BD060
:1012D0001F4B5B69002B25D000233B711C4B5B69C6
:1012E0003A1D1046984729E01A4B1B78002B03D172
:1012F000174B5B68FB6002E0154B9B68FB60164B6D
:101300001846F968002208F005F9B860BB68002BA0
:1013100008D00F4B9B69002B04D00D4B9B69B8681C
:1013200098470BE00AE00A4B5B69002B06D00123CB
:101330003B70074B5B693A4610469847034B0022C7
:101340001A701037BD4680BD88450020B04500208A
:1013500060450020844500209045002080B582B083
:1013600000AF78607B689A880A4B1A800A4B7A68CB
:10137000103292E8030083E80300084B00221A7041
:10138000074BDB89002B01D1FFF792FF0837BD46E1
:1013900080BD00BF86450020884500208445002090
:1013A0006045002080B584B000AF78600C4B4FF6EC
:1013B000FF721A800B4B00221A700B4B184608F074
:1013C000DDF8F860FB68002B07D0084B9B69002B09
:1013D00003D0064B9B69F86898471037BD4680BD1F
:1013E000864500208445002090450020604500206F
:1013F00080B584B000AF78607B680633FB60FB6823
:101400001A88134BDB899A421ED1FB685B89022B39
:101410001AD1FB680C33184600F0AAF90346002BDA
:1014200002D0FFF745FF0FE00A4B184608F0A6F878
:10143000B860BB68002B07D0054B9B69002B03D01D
:10144000034B9B69B86898471037BD4680BD00BF05
:10145000604500209045002080B582B000AF7860E4
:10146000054B7A68083292E8030083E80300FFF72F
:101470001FFF0837BD4680BD8845002080B582B07B
:1014800000AF78607B681B88112B0DD0112B02DC1C
:10149000102B05D014E0122B0ED0502B08D00FE0EB
:1014A0007868FFF75BFF0BE07868FFF77BFF07E0EA
:1014B0007868FFF79DFF03E07868FFF7CDFF00BF76
:1014C0000837BD4680BD00BF80B584B000AF7860EE
:1014D0001A4B7A681068516803C31848FFF71EFE5C
:1014E000F860FB68002B24D11548FFF71FFE034668
:1014F00083F00103DBB2002B0DD0124B01221A70D6
:10150000114B1B8818460D49FFF700FEF8600F4B82
:1015100001221A700DE00E4B5B69002B07D00123EE
:101520003B720B4B5B6907F108021046984700239A
:10153000FB60FB6818461037BD4680BD7C45002027
:1015400088450020B04500208645002084450020C5
:101550006045002080B584B000AF0346FB80144B8B
:101560005B6CDB43184608F0B1F90346FB81FA894E
:101570004FF6FF739A4215D0FB890D4A5B00134466
:10158000FA889A80FB880B480B491A46012308F019
:10159000BBF9FB88074809491A46012308F0B4F94A
:1015A000012300E0002318461037BD4680BD00BF70
:1015B000B4450020B8450020FC450020F845002037
:1015C00080B584B002AF0346FB80FB880022009206
:1015D000034804491D2208F0A9F90837BD4680BD1B
:1015E000B8450020F845002080B582B000AF034622
:1015F000FB80FB88044805491A46002308F084F95B
:101600000837BD4680BD00BFB8450020FC4500201E
:1016100080B5A4B000AF184B9B6CDA43164B5B6CE3
:1016200013403A46104615491A4608F0C7F907F123
:1016300048013A464423084611461A462DF097FFC2
:101640000023C7F88C300FE0D7F88C305B0007F12F
:101650009002134433F8443C1846FFF7B1FFD7F823
:101660008C300133C7F88C30BA6CD7F88C309A4282
:10167000EAD89037BD4680BDB4450020B84500206B
:1016800080B584B000AF78607B681B88112B25D0B3
:101690001A2B29D0102B48D1FFF7BAFF7B689B8803
:1016A0001846FFF757FF034683F00103DBB2002B18
:1016B00005D00420E0211E4A07F08CFF35E07B684E
:1016C000DB7B022B14BF00230123FB737B689A880A
:1016D000FB7B1848184908F017F926E07B689B88BF
:1016E0001846FFF781FF20E07B689A887B681B7AA9
:1016F000C3F30313DBB2012BD4BF00230123DBB2FE
:101700000C480E4908F000F97B689A887B681B7AC0
:10171000C3F30313DBB2022BD4BF00230123DBB2DC
:101720000448074908F0F0F800BF1037BD4680BDF7
:10173000A0730500B84500200046002004460020A4
:101740000846002080B483B000AF78607B681B78C7
:101750001A467B6801331B781B029BB213439BB272
:101760009BB218460C37BD465DF8047B704700BF3E
:1017700080B584B000AF78607868FFF7E3FF034678
:10178000FB81FB8903F00103002B0CBF0023012325
:10179000DBB218461037BD4680BD00BF80B584B0AF
:1017A00000AF78607868FFF7CDFF0346FB81FB89C7
:1017B00003F00203002B0CBF00230123DBB2184609
:1017C0001037BD4680BD00BF80B584B000AF7860E3
:1017D00039600023FB73FB7B5A1CFA737A6813444D
:1017E0003A6812781A70FB7B5A1CFA737A681344B1
:1017F0003A6852781A70FB7B022B14BF0023012336
:10180000DBB2BB60BB68002B04D100204721044A37
:1018100007F0E0FEFB7B18461037BD4680BD00BFD9
:101820000874050080B483B000AF78604FF0804347
:101830007A68C3F804230C37BD465DF8047B704713
:1018400080B483B000AF78604FF080437A68C3F80B
:1018500008230C37BD465DF8047B704780B483B025
:1018600000AF0346FB71FB7903F1804301221A604C
:101870000C37BD465DF8047B704700BF80B485B06F
:1018800000AF0346FB80FB8803F1804300221A600F
:10189000FB8803F180431B68FB60FB681437BD467F
:1018A0005DF8047B704700BF80B483B000AF03468F
:1018B000FB80FB8803F180431B68002B0CBF0023D7
:1018C0000123DBB218460C37BD465DF8047B704738
:1018D00080B483B000AF0346FB714FF08043FA79C8
:1018E00002F00302C3F818250C37BD465DF8047BEF
:1018F000704700BF80B483B000AF0346FB714FF068
:101900008043D3F80C3403F00112FB7943F48033A5
:101910009A4214BF00230123DBB218460C37BD46A0
:101920005DF8047B704700BF80B483B000AF03460E
:10193000FB710C4B97F90720520953F82220FB79D1
:1019400003F01F0322FA03F303F00103002B0CBF83
:1019500000230123DBB218460C37BD465DF8047B3B
:10196000704700BF00E100E080B500AF0020FFF746
:10197000DBFF034683F00103DBB2002B03D0002022
:10198000062100F0E1F980BD3FDF7047184600BF37
:1019900040DF7047184600BF80B500AF08F0E8FF91
:1019A0000346002B02D0FFF7EFFF09E04FF48070F1
:1019B000FFF764FF0120FFF735FF0020FFF74EFF20
:1019C00080BD00BF80B500AF08F0D2FF0346002BFA
:1019D00002D0FFF7DDFF0CE00420FFF73FFF00BF60
:1019E0000120FFF787FF0346002BF9D1014B0022AE
:1019F0005A7080BD6C46002080B582B000AF0023D5
:101A00007B60144B1B78002B02D085237B601BE08E
:101A1000104B00229A600F4B00225A600D4B00229F
:101A20001A610C4B0022DA60FFF79EFF08F0A0FF5E
:101A3000034683F00103DBB2002B02D00120FFF745
:101A400047FF044B01221A707B6818460837BD46D1
:101A500080BD00BF6C46002080B485B000AF7860C8
:101A600039607B681B68FB6007E0FA683B689A4254
:101A700000D10CE0FB681B68FB60FB68002BF4D115
:101A80007B681A683B681A607B683A681A6014378A
:101A9000BD465DF8047B704780B485B000AF7860C8
:101AA0007B681B68FB60FB68002B03D0FB681A682F
:101AB0007B681A60FB6818461437BD465DF8047BE6
:101AC000704700BF80B584B000AF78601E4B5B7874
:101AD000DBB2002B17D07B68002B03D07B685B68E0
:101AE000002098470023FB7307F10F03184607F007
:101AF00077FE154B5B685A1C134B5A60FB7B1846EC
:101B000007F078FE1CE00023BB7307F10E031846B4
:101B100007F066FE7B68002B03D00C487968FFF75E
:101B20009BFF094B5B68002B01D1FFF735FF064B8C
:101B30005B685A1C044B5A60BB7B184607F05AFE80
:101B40001037BD4680BD00BF6C46002074460020A3
:101B500080B582B000AF0023FB71FB1D184607F073
:101B60003FFE094B5B685A1E074B5A60064B5B6889
:101B7000002B01D1FFF726FFFB79184607F03AFE4C
:101B80000837BD4680BD00BF6C46002080B584B0DC
:101B900000AF0346FB71FB79002B02D10A4BFB60BF
:101BA00001E00A4BFB60F868FFF776FFB860BB689E
:101BB000002B00D105E0BB685B68FA7910469847B6
:101BC000F1E71037BD4680BD744600207C460020FA
:101BD00080B500AF4FF48070FFF766FE0346002B20
:101BE0000CD04FF48070FFF749FE0120FFF728FE6C
:101BF0000D4B01225A700020FFF7C8FF4FF482708E
:101C0000FFF752FE0346002B0CD04FF48270FFF713
:101C100035FE0220FFF714FE034B01229A700120CB
:101C2000FFF7B4FF80BD00BF6C46002080B582B0D6
:101C300000AF78607B68002B02D10020FFF7A6FF81
:101C40000837BD4680BD00BF80B582B000AF00231D
:101C5000FB71FB1D184607F0C3FD0C4B1B7883F08E
:101C60000103DBB2002B01D0FFF7C6FE074BDB6898
:101C70005A1C064BDA60054B01229A70FB79184614
:101C800007F0B8FD0837BD4680BD00BF6C46002098
:101C900080B483B000AF0346FB71084B97F907206F
:101CA0005209F97901F01F01012000FA01F143F80E
:101CB00022100C37BD465DF8047B704700E100E060
:101CC00080B483B000AF0346FB71094B97F907203E
:101CD0005209F97901F01F01012000FA01F1603287
:101CE00043F822100C37BD465DF8047B704700BFF7
:101CF00000E100E080B483B000AF03463960FB71BF
:101D000097F90730002B0BDA0D49FB7903F00F032D
:101D1000043B3A68D2B25201D2B20B441A7609E0BF
:101D2000084997F907303A68D2B25201D2B20B444F
:101D300083F800230C37BD465DF8047B704700BF75
:101D400000ED00E000E100E080B582B000AF0246A7
:101D50000B46FA71BB71BB7997F9072010461946FB
:101D6000FFF7C8FF97F907301846FFF7A9FF97F963
:101D700007301846FFF78CFF0837BD4680BD00BF0F
:101D800080B582B000AF0346FB80FB88184600F0A8
:101D900023F803461B68012B14BF00230123DBB289
:101DA00018460837BD4680BD80B584B000AF0346F5
:101DB000FB80FB88184600F00FF8034600221A60EB
:101DC000FB88184600F008F803461B68FB60FB68B8
:101DD0001037BD4680BD00BF80B483B000AF03465E
:101DE000FB80FB8803F1804303F5C04318460C37A2
:101DF000BD465DF8047B704780B483B000AF786067
:101E0000044B7A68C3F804230C37BD465DF8047BA5
:101E1000704700BF0060004080B483B000AF7860BE
:101E2000044B7A68C3F808230C37BD465DF8047B81
:101E3000704700BF0060004080B483B000AF78609E
:101E4000054BD3F804237B68134018460C37BD4676
:101E50005DF8047B704700BF0060004080B483B031
:101E600000AF7860094B094A796801F5A27152F810
:101E7000212042F001017A6802F5A27243F8221093
:101E80000C37BD465DF8047B704700BF0060004022
:101E900080B483B000AF7860094B094A796801F5D6
:101EA000A27152F8212022F001017A6802F5A27293
:101EB00043F822100C37BD465DF8047B704700BF25
:101EC0000060004080B485B000AFF860B960134690
:101ED000FB71154A144BF96801F5A27153F82130D2
:101EE00023F4473323F44073F96801F5A27142F8F3
:101EF00021300D4B0C4AF96801F5A27152F82110FE
:101F0000BA68120202F4F850FA79120402F440326C
:101F100002431143FA6802F5A27243F82210143703
:101F2000BD465DF8047B70470060004080B483B01C
:101F300000AF7860074B7A6802F5A27253F822303E
:101F400003F4F8531B0A18460C37BD465DF8047BB2
:101F5000704700BF0060004080B483B000AF78607D
:101F6000074B7A6802F5A27253F8223003F440332B
:101F70001B0CDBB218460C37BD465DF8047B70477E
:101F80000060004080B483B000AF7860054B7A6891
:101F900002F5A272002143F822100C37BD465DF80D
:101FA000047B70470060004080B483B000AF78606D
:101FB0004FF0A04318460C37BD465DF8047B7047D0
:101FC00080B584B000AF7860F970BA707B703B1D4B
:101FD0001846FFF7E9FFF8607A68F978BB785B008C
:101FE00019437B789B0019433B7E1B0219433B7FBF
:101FF0001B041943FB6802F5E07243F82210103706
:10200000BD4680BD80B584B002AF78600B46FB70E2
:10201000FB780022009200220192786800210022C1
:10202000FFF7CEFF0837BD4680BD00BF80B584B046
:1020300002AF7860002300930023019378680021A9
:1020400001220023FFF7BCFF0837BD4680BD00BF5B
:1020500080B584B000AF78603B1D1846FFF7A4FF41
:10206000F8607A68FB6802F5E07253F8223023F0DA
:102070000203BB607A68FB6802F5E072B96843F856
:1020800022101037BD4680BD80B584B000AF7860A7
:102090000B46FB703B1D1846FFF786FFF8607A6819
:1020A0007968FB6801F5E07153F8213023F4403181
:1020B000FB6802F5E07243F822107A687968FB68E1
:1020C00001F5E07153F82110FB781B041943FB68FC
:1020D00002F5E07243F822101037BD4680BD00BF04
:1020E00080B584B000AF78603B1D1846FFF75CFFF9
:1020F000F860F86800F022F802467B6822FA03F3E1
:1021000003F0010318461037BD4680BD80B584B08A
:1021100000AF78603B1D1846FFF746FFF8607A680D
:10212000FB6802F5E07253F8223003F440331B0CD5
:10213000DBB218461037BD4680BD00BF80B483B007
:1021400000AF78607B68D3F8103518460C37BD4671
:102150005DF8047B704700BF80B586B000AFF860C3
:10216000B9607A604FF0A0433B61FB687B6112E08D
:102170007B699B0007F11802134453F8083C18468A
:10218000FFF7DCFF02467B681A607B6804337B60E4
:102190007B6901337B61FA68BB681A447B699A42A8
:1021A000E6D81837BD4680BD80B485B000AF7860F2
:1021B00039603B68FB607B68DB08BB607B6803F0D1
:1021C00007037B607B6801229A40F968BB680B4477
:1021D0001B78134018461437BD465DF8047B7047E2
:1021E00080B485B000AF786039603B68FB607B6885
:1021F000DB08BB607B6803F007037B60FA68BB68A1
:102200001344F968BA680A441278D1B27A68012096
:1022100000FA02F2D2B20A43D2B2D2B21A70143722
:10222000BD465DF8047B704780B483B000AF786032
:102230000D4A7B68134440331B785BB2002B09DBEB
:10224000094A7B68134440331B785BB2072B01DCDF
:10225000012300E0002303F00103DBB218460C3732
:10226000BD465DF8047B70478046002080B483B093
:1022700000AF7860084A7B68134440331B785BB238
:10228000072BD4BF00230123DBB218460C37BD4611
:102290005DF8047B704700BF8046002080B483B0A7
:1022A00000AF7860074A7B68134440331B78DB43F8
:1022B000DBB2DB09DBB218460C37BD465DF8047BA8
:1022C000704700BF8046002080B485B000AFF86042
:1022D000B9607A60FB70BB68DAB20E49FB680B44E8
:1022E00040331A700B4BBA68796843F82210FB78B8
:1022F00083F00103DBB2002B07D0BB68083BFA6810
:10230000D2B204490B4483F860201437BD465DF80F
:10231000047B70478046002080B483B000AF7860B3
:10232000054A7B6813444033FF221A700C37BD46C0
:102330005DF8047B704700BF8046002080B483B006
:1023400000AF7860054A7B68134440331B785BB26A
:1023500018460C37BD465DF8047B70478046002068
:1023600080B483B000AF7860044B7A6853F82230B1
:1023700018460C37BD465DF8047B70478046002048
:1023800080B588B000AFF860B9601346FB71FF23D9
:10239000FB77FB79002B01D0002300E008237B6151
:1023A000FB79002B01D0082300E010233B617B69FF
:1023B000BB6112E00E4BBA6953F82230B3F1FF3F14
:1023C00008D1FB79F868B969BA68FFF77DFFBB6986
:1023D000FB7706E0BB690133BB61BA693B699A428E
:1023E000E8D3FB7F5BB218462037BD4680BD00BFF7
:1023F0008046002080B483B000AF0346FB71FA79B9
:10240000094B4FF0FF3143F82210FB79072B06D917
:10241000FB79083B044A1344FF2283F860200C3701
:10242000BD465DF8047B70478046002080B582B0D1
:1024300000AF1D4B93F86830002B03D008233B609E
:102440003B682CE00023FB7106E0FB791846FFF7A0
:1024500063FFFB790133FB71FB791F2BF5D9002357
:10246000FB7106E0FB791846FFF7C4FFFB790133E7
:10247000FB71FB790F2BF5D906200621FFF764FCD1
:102480004FF4BE70FFF790FC4FF00040FFF7B4FC34
:10249000054B012283F8682000233B603B68184607
:1024A0000837BD4680BD00BF8046002080B400AF25
:1024B000064B93F86830002B0CBF00230123DBB2DE
:1024C0001846BD465DF8047B704700BF804600207B
:1024D00080B586B000AFF860B9607A6000237B6198
:1024E000F868FFF7DBFE0346002B02D008237B6170
:1024F00040E0BB68DB78F86879681A46FFF740FF70
:102500000346FB7497F91330B3F1FF3F30D0BB683B
:102510009B78002B03D0F868FFF79AFD05E0BB68B5
:102520005B78F8681946FFF76DFDBB68DB78002B18
:1025300009D097F91320BB681B781046F9681A4632
:10254000FFF7C0FC16E097F91330083B97F913200A
:10255000083A0B490A4492F86010BA68127892015E
:10256000D2B20A43D2B206490B4483F8602001E09C
:1025700004237B617B6918461837BD4680BD00BFC8
:102580008046002080B586B000AF78600B46FB70B7
:102590007868FFF76BFE0346002B27D07868FFF7BB
:1025A000CDFE0346083B2A4A134493F86030BB75BE
:1025B000BB7D9B097B757B7D032B0AD17868FFF778
:1025C0008FFD0346002B01D0032300E00223FB759F
:1025D00006E07B7D012B01D1022300E00323FB7584
:1025E000FB7D78681946FFF74FFD2DE07868FFF70F
:1025F0001BFE0346002B27D07868FFF79FFE03469B
:102600003B613B699BB240339BB29B00FB813B69C2
:102610001846FFF723FCFB891846FFF7C5FBFB783C
:10262000002B11D07868FFF789FE03461846FFF7A4
:1026300097FEB860BB68002B06D001223B6902FA06
:1026400003F31846FFF7D8FB1837BD4680BD00BF1F
:102650008046002080B584B000AF78607868FFF7CE
:1026600005FE0346002B04D078680021FFF70CFD1F
:1026700015E07868FFF7D8FD0346002B0FD0786887
:10268000FFF75CFE0346FB60FB681846FFF700FCA3
:102690000122FB6802FA03F31846FFF7BDFB10376F
:1026A000BD4680BD80B582B000AF78607868FFF726
:1026B000D1FF7868FFF7B8FD0346002B06D0786895
:1026C000FFF73CFE03461846FFF75CFC7868FFF70F
:1026D000ADFC7868FFF732FE0346DBB21846FFF721
:1026E00089FE7868FFF718FE0837BD4680BD00BF39
:1026F00080B582B000AF78607868FFF7F1FC0346E0
:10270000002B0CBF00230123DBB218460837BD465F
:1027100080BD00BF80B594B000AF0023FB640023F0
:10272000FB604FF48073A7F8463001233B6400231D
:10273000BB6421E0B7F846301846FFF721FB03469B
:10274000002B0ED0386CFFF777FB0346002B08D028
:10275000B7F846301846FFF727FBFA6C3B6C13437B
:10276000FB643B6C5B003B64B7F846300433A7F86E
:102770004630BB6C0133BB64BB6C072BDAD94FF41A
:10278000BE70FFF7FDFA0346002B0ED04FF4BE706B
:10279000FFF70AFBFB6C43F00043FB6407F10C03FB
:1027A000002001211A46FFF7D7FCFB6CDBB2002B9F
:1027B00029D001233B640023BB6421E03A6CFB6C0D
:1027C0001340002B16D0B86CFFF7B0FB7863B86CE1
:1027D000FFF7C2FB034687F83330B86CFFF7C0FD44
:1027E000F862FB6A002B05D097F83320FB6A786B00
:1027F000114698473B6C5B003B64BB6C0133BB6488
:10280000BB6C072BDAD9FB6C002B80F2F080002325
:1028100087F83B300023BB600023FB630BE0FB6BBE
:102820009B0007F150010B444FF0FF3243F84C2C52
:10283000FB6B0133FB63FB6B002BF0D0002387F8AD
:102840003B300023BB6473E06A4ABB6C13446033C3
:102850001B7887F82B3097F82B3023F0C0037B626E
:10286000644ABB6C134460331B785BB2B3F1FF3F27
:102870005BD03B1D786A1946FFF796FC0346002B98
:1028800053D097F82B309B0987F82330786AFFF7ED
:1028900055FD03461846FFF763FDF861FB69002B01
:1028A00003D197F82330032B3FD197F82330032B24
:1028B00005D107F10803786A1946FFF791FC786A99
:1028C000FFF724FC0346FB7607F10C03786A1946F0
:1028D000FFF76AFC78617B69002B02D0FB7E022B3C
:1028E00005D07B69002B20D1FB7E032B1DD197F8EF
:1028F0002330032B10D1FB7E022B01D1032300E0F8
:102900000223FB74FB7C786A1946FFF7BDFB97F83E
:102910003B30013387F83B30FB69002B05D097F83B
:102920002320FB69786A11469847BB6C0133BB646E
:10293000BB6C072B88D997F83B30002B52D0012372
:1029400087F83A303B46002001211A46FFF704FC85
:102950000023FB6316E0FB6B9B0007F1500213445E
:1029600053F8502CFB6B9B0007F150010B4453F8BC
:10297000443C9A4203D0002387F83A3005E0FB6BD1
:102980000133FB63FB6B002BE5D097F83A30002B4B
:1029900003D0002387F83B3024E00023FB631EE0D4
:1029A000FB6B9B0007F15002134453F8502CFB6B58
:1029B0009B0007F150010B4443F8442CFB6B9B0038
:1029C00007F15002134453F8482CFB6B9B0007F1AE
:1029D00050010B4443F84C2CFB6B0133FB63FB6B46
:1029E000002BDDD097F83B30002B7FF427AF50371A
:1029F000BD4680BD8046002080B483B000AF134642
:102A00000246FA710A46BA717B710949FB797A79F3
:102A100051331B010B445A600549FB79BA79513394
:102A20001B010B441A600C37BD465DF8047B7047F0
:102A30000070004080B582B000AF03463960FB7182
:102A40001E49FB793A68127802F003003A6852781E
:102A5000120102F0300210433A689278120202F436
:102A6000E06210433A68D278120302F480521043B5
:102A70003A681279120402F4E02210433A6852795B
:102A8000120502F4801210433A689279120602F09D
:102A9000807202431B010B4403F5A3631A603B6879
:102AA000DA793B681B7AF979084611461A46FFF72E
:102AB000A3FF00BF0837BD4680BD00BF00700040C7
:102AC00080B483B000AF0346FB71FB7903F1804310
:102AD00003F5E83301221A600C37BD465DF8047B2C
:102AE000704700BF80B483B000AF0346FB80FB8813
:102AF00003F1804303F5E8331B68002B0CBF002370
:102B00000123DBB218460C37BD465DF8047B7047E5
:102B100080B485B000AF0346FB80FB8803F180439F
:102B200003F5E83300221A60FB8803F1804303F5C4
:102B3000E8331B68FB60FB681437BD465DF8047B17
:102B4000704700BF80B483B000AF7860044B7A68F0
:102B5000C3F804230C37BD465DF8047B704700BF03
:102B600000D0014080B400AF034B0122C3F8002520
:102B7000BD465DF8047B704700D0014080B400AFD3
:102B8000034B0022C3F80025BD465DF8047B704767
:102B900000D0014080B483B000AF02460B46FA710A
:102BA000BB71084BFA7902F00101BA79520002F0C8
:102BB00002020A43C3F808250C37BD465DF8047BC2
:102BC000704700BF00D0014080B483B000AF786090
:102BD000044B7A68C3F804250C37BD465DF8047BC6
:102BE000704700BF00D0014080B483B000AF786070
:102BF0003960064B7A68C3F84025044B3A68C3F83D
:102C000044250C37BD465DF8047B704700D0014079
:102C100080B483B000AF02460B46FA71BB71064B1D
:102C2000FA79C3F81825044BBA79C3F81C250C3778
:102C3000BD465DF8047B704700D0014080B483B08E
:102C400000AF78603960064B7A68C3F86025044BA2
:102C50003A68C3F864250C37BD465DF8047B7047BD
:102C600000D0014080B400AF034BD3F86035184664
:102C7000BD465DF8047B704700D0014080B483B04E
:102C800000AF78604FF0A04318460C37BD465DF8A2
:102C9000047B704780B584B000AF7860F970BA707B
:102CA0007B703B1D1846FFF7E9FFF8607A68F978FA
:102CB000BB785B0019437B789B0019433B7E1B026A
:102CC00019433B7F1B041943FB6802F5E07243F88C
:102CD00022101037BD4680BD80B584B002AF786049
:102CE000002300930023019378680121012200232F
:102CF000FFF7D0FF0837BD4680BD00BF80B584B068
:102D000002AF78600B46FB70FB7800220092002235
:102D10000192786800210022FFF7BCFF0837BD460A
:102D200080BD00BF80B584B000AF78603B1D184601
:102D3000FFF7A4FFF8607B68012202FA03F3F8684A
:102D4000194600F003F81037BD4680BD80B483B04B
:102D500000AF786039607B683A68C3F80C250C379F
:102D6000BD465DF8047B704780B500AF4FF48470BA
:102D7000FFF7B8FE0346002B1ED04FF48470FFF718
:102D8000C7FEFFF76FFF0246274BDB689A4209D167
:102D9000254B5B68244A1169234A1289084611466B
:102DA000984740E0204B5B681F4AD1681E4A128951
:102DB00008461146984736E04FF48070FFF792FEC0
:102DC0000346002B1FD04FF48070FFF7A1FE164B77
:102DD00001225A70FFF746FF0246134BDB689A4206
:102DE00008D1114B1A69104B1B8910461946FFF781
:102DF00025FF18E00C4BDA680B4B1B89104619466F
:102E0000FFF71CFF0FE04FF48270FFF76BFE0346E5
:102E1000002B08D04FF48270FFF77AFEFFF7AEFE6A
:102E2000014B00225A7080BDEC46002080B584B072
:102E300000AF786039603F4B1B78002B03D008232C
:102E4000FB60FB6871E07B68002B02D03B68002BC5
:102E500003D10723FB60FB6867E07B681B7A502B7C
:102E600008D87B685B7A502B04D87B689B89B3F5C4
:102E7000004F03D90723FB60FB6856E07B681A69A3
:102E80002C4BDA607B685A692A4B1A617B689A89F5
:102E9000284B1A81274B3A685A60264B00225A70F9
:102EA000244BDA68234B1B8910461946FFF7C6FEF0
:102EB0007B685B681846FFF787FE7B681A787B683B
:102EC0005B7810461946FFF765FE7B681A7A7B68C7
:102ED0005B7A10461946FFF79BFE7B689B78184685
:102EE000FFF7FAFE7B689B781846FFF71BFF7B68AD
:102EF000DB7818460121FFF701FF7B689B781A46B3
:102F00007B68DB7810461946FFF76EFE094B0122FD
:102F10001A700720FFF716FE7B689B7A1D20194662
:102F2000FEF712FF0023FB60FB6818461037BD4612
:102F300080BD00BFEC46002080B582B000AF134BCF
:102F40005B78002B0BD0114B5B78012B03D1002356
:102F50007B607B6815E011237B607B6811E00B4B85
:102F600002225A70094B02221A70FFF7FBFD4FF440
:102F70008070FFF7CDFD0020FFF7A2FD00237B60EE
:102F80007B6818460837BD4680BD00BFEC46002070
:102F900080B582B000AF114B5B78012B0DD00F4B89
:102FA0005B78002B05D1FFF7E9FD00237B607B6890
:102FB0000FE011237B607B680BE0084B02225A7004
:102FC000064B01221A700420FFF77AFD00237B6074
:102FD0007B6818460837BD4680BD00BFEC46002020
:102FE00080B483B000AF78600B46FB70FB787A68E2
:102FF000134401221A600C37BD465DF8047B70470C
:1030000080B483B000AF78600B46FB70FA787B68C1
:10301000134418460C37BD465DF8047B704700BF6B
:1030200080B485B000AF78600B467B807B887A687F
:10303000134400221A607B887A6813441B68FB6083
:10304000FB681437BD465DF8047B704780B483B0DD
:1030500000AF78600B467B807B887A6813441B68DE
:10306000002B0CBF00230123DBB218460C37BD46F2
:103070005DF8047B704700BF80B483B000AF786018
:1030800039607B683A68C3F800220C37BD465DF8AA
:10309000047B704780B483B000AF786039607B6890
:1030A0003A68C3F800230C37BD465DF8047B7047CF
:1030B00080B483B000AF78607B680122C3F800253C
:1030C0000C37BD465DF8047B704700BF80B485B007
:1030D00000AF786039600023FB730DE0FA7BFB7B67
:1030E0009B0039680B4419687B6802F5AC7243F8A1
:1030F0002210FB7B0133FB73FB7B032BEED91437D0
:10310000BD465DF8047B704780B483B000AF786043
:10311000F970BA703B80FA787B68C3F80C25BA78EE
:103120007B68C3F804253A887B68C3F808250C3708
:10313000BD465DF8047B704780B584B000AFF86091
:103140000B467A60FB727B681B68FA7AF868114656
:103150001A4600F01BF87B689B88FA7AF8681146DB
:103160001A4600F027F87B689B68FA7AF8681146DF
:103170001A4600F033F87B68DB68FA7AF868114683
:103180001A4600F03FF81037BD4680BD80B485B0C8
:1031900000AFF8600B467A60FB72FB7A7A68F968D8
:1031A00029335B010B441A601437BD465DF8047B7C
:1031B000704700BF80B483B000AF786013460A4602
:1031C000FA703B80FB783A88796829335B010B44BD
:1031D0005A600C37BD465DF8047B704780B485B0FB
:1031E00000AFF8600B467A60FB72FB7AFA685B010D
:1031F000134403F5A5637A681A601437BD465DF879
:10320000047B704780B485B000AFF8600B467A60ED
:10321000FB72FB7AFA685B01134403F5A5637A68D5
:103220005A601437BD465DF8047B704780B483B0A4
:1032300000AF786013460A46FA70BB70FA78BB7824
:103240001B021A437B68C3F810250C37BD465DF896
:10325000047B704780B483B000AF78600B467B80FE
:103260007A887B68C3F814250C37BD465DF8047B6B
:10327000704700BF80B485B000AF78607B681B0BDF
:10328000FB73FB7B5BB218461437BD465DF8047BCD
:10329000704700BF80B483B000AF78604FF0A043A8
:1032A00018460C37BD465DF8047B704780B584B086
:1032B00000AF7860F970BA707B703B1D1846FFF75D
:1032C000E9FFF8607A68F978BB785B0019437B788E
:1032D0009B0019433B7E1B0219433B7F1B04194390
:1032E000FB6802F5E07243F822101037BD4680BD3E
:1032F00080B584B002AF786000230093002301936F
:103300007868012101220023FFF7D0FF0837BD466E
:1033100080BD00BF80B584B000AF78603B1D18460B
:10332000FFF7B8FFF8607B68012202FA03F3F86840
:10333000194600F017F81037BD4680BD80B584B03F
:1033400000AF78603B1D1846FFF7A4FFF8607B686C
:10335000012202FA03F3F868194600F011F8103759
:10336000BD4680BD80B483B000AF786039607B68B3
:103370003A68C3F808250C37BD465DF8047B7047F2
:1033800080B483B000AF786039607B683A68C3F876
:103390000C250C37BD465DF8047B704780B588B0BE
:1033A00000AF786039600023FB7747E0FB7F3A6825
:1033B000D35CBB77BB7FFF2B34D0BB7F03F0800394
:1033C000002B0CBF002301237B77FB7FBA7F22F009
:1033D00080029B0007F120010B4443F8142C7B7FF3
:1033E000002B0AD0FB7F9B0007F12002134453F807
:1033F000143C1846FFF78EFF09E0FB7F9B0007F1A6
:1034000020010B4453F8143C1846FFF797FFFB7F4D
:103410009B0007F12002134453F8143C1846FFF7B1
:1034200067FF08E0FB7F9B0007F120010B444FF092
:10343000FF3243F8142CFB7F0133FB77FB7F032B18
:10344000B4D97B681A6807F10C0310461946FFF7D8
:103450003DFE2037BD4680BD80B586B000AFF86028
:10346000B9607A60FB681B79DA00384B13447B61E2
:103470007B691B79DBB2002B03D008233B613B69DE
:103480005FE07B697A681A60F868B968FFF786FFC1
:10349000FB681B681846FFF70BFEFB681868BB68E3
:1034A0005979BB689A79BB681B89FFF72DFEFB68C9
:1034B0001968BB689A7ABB68DB7A084611461A46D7
:1034C000FFF7B4FEFB681B6818460021FFF7D4FD28
:1034D000FB681B6818460021FFF7DCFDFB681B68D2
:1034E00018464FF48E71FFF79BFDFB681B6818466A
:1034F0004FF48871FFF794FDFB681B6818464FF482
:103500008A71FFF78DFDFB681B6818464FF48271C6
:10351000FFF786FD7B691B68002B0CD0FB681B68DE
:103520001846FFF7A7FE03461A46BB681B791046EC
:103530001946FEF709FC7B6901221A7100233B61E1
:103540003B6918461837BD4680BD00BF00470020C4
:1035500080B586B000AFF860B960FA71BB71BB6826
:1035600002221A71BB68FA795A71BB681B68002B7A
:1035700022D082237B61FB7903F00403002B03D06C
:103580007B6943F010037B61FB7903F00803002B98
:1035900003D07B6943F020037B61FB7903F01003C8
:1035A000002B03D07B6923F080037B61FB681B68E1
:1035B00018467969FFF76EFDFB681B6818464FF4E3
:1035C0008271FFF72DFDFB795BB2002B09DAFB68F6
:1035D0001A68BB7910461946FFF712FD38613B693E
:1035E00007E0FB681A68BB7910461946FFF7F8FC3C
:1035F000002318461837BD4680BD00BF80B588B08F
:1036000000AFF860B9603B601346FB80FB681B7934
:10361000DA002A4B1344BB61FB681B681846002183
:10362000BA68FFF789FDFB681B6818460121BA6874
:10363000FFF782FDFB8803F00103002B0CBF002382
:103640000123FB75FB681A68FB885B0899B2FB7D58
:103650009BB20B449BB210461946FFF7FBFD3B683B
:1036600003F00103002B02D01023FB610EE03B6846
:1036700003F00203002B07D0FB7D002B01D00823B1
:1036800000E00423FB6101E00023FB61FB681B6891
:103690001846F969FFF7F0FC3B68DAB2FB7D002BB6
:1036A00001D00C2300E00823F868B969FFF750FF48
:1036B000034618462037BD4680BD00BF00470020A6
:1036C00080B586B000AFF860B9607A607B80FB6837
:1036D0001B79DA001E4B13443B61FB681B681846DC
:1036E0000021BA68FFF728FDFB681B681846012116
:1036F0007A68FFF721FDFB681A687B881046194637
:10370000FFF7A8FD3B6A03F00103002B02D0102352
:103710007B6109E03B6A03F00203002B02D0042323
:103720007B6101E000237B61FB681B6818467969B7
:10373000FFF7A2FC3B6ADBB2F86839691A46082336
:10374000FFF706FF034618461837BD4680BD00BF89
:103750000047002080B584B000AF78600B46FB7056
:103760000023FB73786800F01FF80346002B02D09B
:103770000123FB7312E07B681B6818460421FFF7E6
:103780002FFC786800F010F80346002B03D00123CB
:10379000FB7300BF02E0FB78002BF2D1FB7B1846E5
:1037A0001037BD4680BD00BF80B584B000AF7860E3
:1037B0007B681B79DA00104B1344BB600023FB735A
:1037C000BB681B79DBB2022B01D00123FB737B6842
:1037D0001B6818464FF48271FFF738FC0346002B34
:1037E00004D0BB6801221A710123FB73FB7B1846CE
:1037F0001037BD4680BD00BF0047002080B582B0B5
:1038000000AF7860396078684FF48871FFF71EFC6C
:103810000346002B12D078684FF48871FFF700FC44
:103820003B685B7903F00403002B07D03B681B68FF
:10383000002B03D03B681B680120984778684FF441
:103840008A71FFF703FC0346002B12D078684FF40F
:103850008A71FFF7E5FB3B685B7903F00803002BF7
:1038600007D03B681B68002B03D03B681B68022015
:10387000984778684FF48E71FFF7E8FB0346002BFA
:1038800012D078684FF48E71FFF7CAFB3B685B7902
:1038900003F01003002B07D13B681B68002B03D0FB
:1038A0003B681B680020984778684FF48271FFF7E7
:1038B000CDFB0346002B0FD078684FF48271FFF7E1
:1038C000AFFB3B6801221A713B681B68002B03D0D9
:1038D0003B681B68032098470837BD4680BD00BF82
:1038E00080B500AF02480349FFF788FF80BD00BFE5
:1038F00000C001400047002080B483B000AF786072
:10390000044B7A68C3F804230C37BD465DF8047B8A
:10391000704700BF00D0004080B483B000AF786033
:10392000044B7A68C3F808230C37BD465DF8047B66
:10393000704700BF00D0004080B483B000AF0346A2
:10394000FB71084BD3F80823FB791340002B0CBF05
:1039500000230123DBB218460C37BD465DF8047B1B
:10396000704700BF00D0004080B483B000AF034672
:10397000FB71FB7903F1804303F5504301221A6088
:103980000C37BD465DF8047B704700BF80B485B03E
:1039900000AF0346FB80FB8803F1804303F55043EF
:1039A00000221A60FB8803F1804303F550431B6833
:1039B000FB60FB681437BD465DF8047B704700BFB1
:1039C00080B483B000AF0346FB80FB8803F18043E3
:1039D00003F550431B68002B0CBF00230123DBB20F
:1039E00018460C37BD465DF8047B704780B400AFC5
:1039F000044BD3F80835DBB21846BD465DF8047BAE
:103A0000704700BF00D000402FDF7047184600BF4E
:103A100030DF7047184600BF80B500AF4FF48070AC
:103A2000FFF7B4FF0120FFF767FF0020FFF79CFFBF
:103A300080BD00BF80B500AF0120FFF76DFF0420FF
:103A4000FFF792FF80BD00BF80B582B000AF786005
:103A500006F08EFF0346002B06D07868FFF7D4FFF0
:103A60000346002B00D106E0044804F089FD03461C
:103A7000DAB27B681A700837BD4680BD70740500E5
:103A800080B584B000AF78600B46FB700023FB600C
:103A90000023BB7207F10A03184605F0A1FE06F0E9
:103AA00067FF0346FB72FB7A83F00103DBB2002B56
:103AB00008D0FB78114879681A4604F035FDF860A3
:103AC000FFF7AAFFBB7A184605F094FEFB7A002B9D
:103AD0000CD0FB7878681946FFF79AFFF860FA680F
:103AE00042F207039A4201D10523FB60FB68022BD7
:103AF000CED0FB6818461037BD4680BD70740500F7
:103B000080B582B000AF0023FB71FB1D184605F0A5
:103B100067FE06F02DFF034683F00103DBB2002BA6
:103B200021D04FF48070FFF74BFF0346002B1AD0D3
:103B30000120FFF701FF0346002B14D04FF48070E3
:103B4000FFF724FFFFF752FF0346BB71BB1D094877
:103B5000194604F0DBFB074804F0BCFB0346002BCE
:103B600001D0FFF767FFFB79184605F043FE0837E1
:103B7000BD4680BD7074050080B483B000AF0346BD
:103B8000FB71094B97F907205209F97901F01F01E0
:103B9000012000FA01F1203243F822100C37BD4613
:103BA0005DF8047B704700BF00E100E080B483B0A3
:103BB00000AF0346FB71FB7903F1804303F5E0435B
:103BC00001221A600C37BD465DF8047B704700BFC8
:103BD00080B483B000AF0346FB80FB8803F18043D1
:103BE00003F5E0431B68002B0CBF00230123DBB26D
:103BF00018460C37BD465DF8047B704780B485B02D
:103C000000AF0346FB80FB8803F1804303F5E043EC
:103C100000221A60FB8803F1804303F5E0431B6830
:103C2000FB60FB681437BD465DF8047B704700BF3E
:103C300080B483B000AF13460246FA710A46BA71E7
:103C40007B710949FB797A7951331B010B445A6026
:103C50000549FB79BA7951331B010B441A600C37C3
:103C6000BD465DF8047B70470070004080B483B0AF
:103C700000AF13460246FA710A46BA807B800949B2
:103C8000FB79B7F9042090B2B7F90220120402437D
:103C90001B010B4403F5A3635A600C37BD465DF866
:103CA000047B70470070004080B483B000AF786040
:103CB000044B7A68C3F804230C37BD465DF8047BD7
:103CC000704700BF0070004080B483B000AF7860E0
:103CD000044B7A68C3F808230C37BD465DF8047BB3
:103CE000704700BF0070004080B485B000AF02464E
:103CF0000B46FA71BB71BB79002B01D1802300E028
:103D00004023FB60FB795B00FA6802FA03F3184674
:103D10001437BD465DF8047B704700BF80B400AF28
:103D2000034B0122C3F80025BD465DF8047B7047B4
:103D30000070004080B400AF034B0022C3F80025A0
:103D4000BD465DF8047B70470070004080B483B0CE
:103D500000AF78603960064B7A68C3F82C26044BB4
:103D60003A68C3F830260C37BD465DF8047B7047CF
:103D70000070004080B483B000AF0346FB71044B79
:103D8000FA79C3F8F0250C37BD465DF8047B70471F
:103D90000070004080B483B000AF0346FB71044B59
:103DA000FA79C3F8F4250C37BD465DF8047B7047FB
:103DB0000070004080B582B000AF0346FB7197F9F8
:103DC00007301846FFF7D8FE0837BD4680BD00BF54
:103DD00080B58CB000AF4FF48270FFF7F9FE034658
:103DE000002B45D04FF48270FFF708FF854B93F806
:103DF0002E3083F00103DBB2002B04D1814B93F80A
:103E00002F30002B34D000233B767E4B5B68FB6168
:103E10007C4B1B899BB23B847A4BDB68002B03D124
:103E2000784B00221A7419E0764B1A8B754B5A8323
:103E3000744BDA68734B5A60724B1A8B714B1A8150
:103E4000704B0022DA606F4B93F82E3083F0010341
:103E5000DBB2002B02D00020FFF7A8FE694B1B68E5
:103E600007F1180210469847664B002283F82F206E
:103E7000644B93F82E30002B5ED04FF48070FFF728
:103E8000A7FE0346002B57D04FF48070FFF7B6FE15
:103E90005C4B5A8B5B4B93F82D309A421BD9594B94
:103EA0005A8B584B93F82D30D31A9AB2554B5A83EC
:103EB000544B5A68534B1B899BB21946514B5B8B31
:103EC000CB1A5B001A444F4B93F82D30104619461D
:103ED000FFF73CFF29E04B4B5A8B4A4B93F82D30B0
:103EE0009A4214D1474BDB68002B10D0454B01227E
:103EF00083F82F20434B00225A83424BDA68414B10
:103F000093F82D3010461946FFF720FF0DE03D4B8A
:103F10005A8B3C4B93F82D309A4206D1394B0122F3
:103F200083F82F20374B00225A834FF48270FFF71B
:103F300065FE0420FFF73AFE4FF48870FFF748FE55
:103F40000346002B0ED04FF48870FFF757FE2D4B21
:103F500000221A7402233B732A4B1B6807F10C02E0
:103F6000104698474FF48A70FFF732FE0346002B45
:103F700007D04FF48A70FFF741FE224B00221A74DB
:103F80003CE0204B5B69FB6235E0FB6AB3FA83F3EC
:103F9000BB62BB6A4FF0004222FA03F3DB43FA6ACA
:103FA0001340FB62BB6A9BB246339BB29B00FB840F
:103FB000FB8C1846FFF70CFE0346002B1BD0FB8C36
:103FC0001846FFF71BFE01233B70FB8CA3F58C7397
:103FD000DB08DBB23B71FB8CA3F58C7303F00403AD
:103FE000002B14BF00230123DBB27B71054B1B6840
:103FF0003A4610469847FB6A002BC6D13037BD467B
:1040000080BD00BF3847002080B584B000AF786025
:1040100039602F4B93F82C30002B03D00823FB6022
:10402000FB6851E03B68002B03D10723FB60FB6872
:104030004AE07B68002B01D1264B7B60244B3A6819
:104040001A607B681B781846FFF794FE7B685B78E4
:104050001846FFF79FFE7B68DA781D4B83F82E2009
:104060001B4B012283F82C20194B00221A74184B89
:10407000002283F82D20164B00225A61144B002297
:1040800083F82F206FF00040FFF71EFE4FF4827080
:10409000FFF7B4FD4FF48070FFF7B0FD7B689B78AD
:1040A00007201946FDF750FE0220FFF7FDFD084BE3
:1040B00093F82E30002B02D00120FFF7F5FDFFF71B
:1040C0002DFE0023FB60FB6818461037BD4680BDFF
:1040D000384700208474050080B582B000AF6FF0CF
:1040E0000040FFF7F1FD0720FFF764FE0820FFF70F
:1040F0005DFD42F210737B6002E07B68013B7B60F8
:104100004FF48A70FFF764FD034683F00103DBB2CE
:10411000002B02D07B68002BEFD1FFF70BFE104B7A
:1041200000221A7400233B600FE00D4A3B680C33F9
:104130005B0013441B79002B04D03B68DBB21846AC
:1041400000F058F83B6801333B603B68072BECD923
:10415000034B002283F82C200837BD4680BD00BFEA
:104160003847002080B584B000AF03463960FB714A
:104170001F4B1B7CDBB2002B03D01123FB60FB68C1
:1041800031E0FB791A4A0C335B0013441B79002B96
:1041900007D1174B93F82D300133DAB2144B83F863
:1041A0002D20FB793A68D27911490C335B000B441E
:1041B0001A71FB793A68127A0D490C335B000B4493
:1041C0005A71FB7918463968FEF734FC3B68DA7996
:1041D0003B681B7AF979084611461A46FFF728FD15
:1041E0000023FB60FB6818461037BD4680BD00BF4A
:1041F0003847002080B584B000AF0346FB711D4BEB
:104200001B7CDBB2002B03D01123FB60FB682DE08D
:10421000FB79184A0C335B0013441B79002B07D041
:10422000144B93F82D30013BDAB2124B83F82D205A
:10423000FB79104A0C335B00134400221A71FB799E
:104240000C4A0C335B00134400225A71FB79184668
:1042500000210022FFF7ECFCFB791846064940F2EA
:10426000FF7200F0CFF80023FB60FB6818461037A0
:10427000BD4680BD3847002000F8FFFF80B584B000
:1042800000AF78600B467B801220FFF71DFD3B4B93
:104290001B7CDBB2022B06D11220FFF705FD112398
:1042A000FB60FB6866E0354B1B7CDBB2012B33D136
:1042B000324BDB68002B06D00220FFF7F5FC112300
:1042C000FB60FB6856E02D4B7A68DA602B4B7A88EE
:1042D0001A832A4B93F82E3083F00103DBB2002BB4
:1042E00013D000BF4FF48070FFF772FC034683F0D9
:1042F0000103DBB2002BF5D14FF48070FFF77EFC99
:104300007B8878681946FFF721FD0220FFF7CCFC77
:104310000023FB60FB682DE00220FFF7C5FC174B74
:1043200001221A74154B7A685A60144B7A881A81E4
:10433000124B0022DA60114B93F82E30002B0AD07A
:104340000E4B7A885A830D4B93F82D3078681946B6
:10435000FFF7FCFC0BE07B8878681946FFF7F6FC5A
:104360004FF48070FFF74AFC0020FFF71FFC00238A
:10437000FB60FB6818461037BD4680BD38470020FB
:1043800080B582B000AF00237B600C4B1B7CDBB29E
:10439000012B02D008237B600BE0084B93F82E30F2
:1043A000002B03D00020FFF701FC02E00420FFF700
:1043B000FDFB7B6818460837BD4680BD38470020A6
:1043C00080B582B000AF0E4B1B7CDBB2002B03D05C
:1043D00011237B607B680FE0094B02221A744FF4B3
:1043E0008870FFF70BFC1020FFF75EFC0C20FFF736
:1043F000DDFB00237B607B6818460837BD4680BD27
:104400003847002080B584B000AF13460246FA71E9
:104410000A46BA807B80F979B7F90420B7F90230EF
:10442000084611461A46FFF721FCFB791846002181
:10443000FFF75AFCF860B7F9043013F5006F10D19C
:10444000264B5A69FB795B0001334FF0004121FA9A
:1044500003F3DB431A40214B5A61F868FFF734FC41
:104460000EE01E4B5A69FB795B0001334FF00041AF
:1044700021FA03F31A43194B5A61F868FFF714FC49
:10448000FB7918460121FFF72FFCF860B7F90220ED
:1044900040F2FF739A420FD1104B5A69FB795B00CF
:1044A0004FF0004121FA03F3DB431A400B4B5A61F2
:1044B000F868FFF709FC0DE0084B5A69FB795B00CF
:1044C0004FF0004121FA03F31A43044B5A61F86894
:1044D000FFF7EAFB1037BD4680BD00BF384700201C
:1044E00080B483B000AF0346FB71094B97F90720F6
:1044F0005209F97901F01F01012000FA01F120327F
:1045000043F822100C37BD465DF8047B704700BFAE
:1045100000E100E080B483B000AF78600B46FB7030
:10452000FB787A68134401221A600C37BD465DF8A7
:10453000047B704780B485B000AF78600B467B8009
:104540007B887A68134400221A607B887A68134457
:104550001B68FB60FB681437BD465DF8047B704741
:1045600080B483B000AF78600B467B807B887A682C
:1045700013441B68002B0CBF00230123DBB2184639
:104580000C37BD465DF8047B704700BF80B483B034
:1045900000AF786039607B68D3F800223B68DB436A
:1045A0001A407B68C3F800220C37BD465DF8047BD7
:1045B000704700BF80B483B000AF786039607B681B
:1045C0003A68C3F804230C37BD465DF8047B704796
:1045D00080B483B000AF786039607B683A68C3F814
:1045E00008230C37BD465DF8047B704780B483B068
:1045F00000AF78607B680522C3F800250C37BD4604
:104600005DF8047B704700BF80B483B000AF786072
:104610007B680022C3F800250C37BD465DF8047B9B
:10462000704700BF80B485B000AFF860B9607A60B1
:10463000FB68BA68C3F80825FB687A68C3F80C25DC
:104640001437BD465DF8047B704700BF80B483B06B
:1046500000AF786039607B683A68C3F824250C376E
:10466000BD465DF8047B704780B485B000AF7860CC
:104670007B68D3F8C434FB607B68FA68C3F8C42451
:10468000FB6818461437BD465DF8047B704700BFD1
:1046900080B483B000AF78600B46FB70FA787B681B
:1046A000C3F888250C37BD465DF8047B704700BF12
:1046B00080B483B000AF78607B68D3F81835DBB284
:1046C00018460C37BD465DF8047B704780B483B054
:1046D00000AF78600B46FB70FA787B68C3F81C2546
:1046E0000C37BD465DF8047B704700BF80B483B0D3
:1046F00000AF786039607B683A68C3F800220C37F5
:10470000BD465DF8047B704780B582B000AF0346BC
:10471000FB7197F907301846FFF7E2FE0837BD46F0
:1047200080BD00BF80B485B000AF78607B681B0B94
:10473000FB73FB7B5BB218461437BD465DF8047B08
:10474000704700BF80B483B000AF78604FF0A043E3
:1047500018460C37BD465DF8047B704780B584B0C1
:1047600000AF78603B1D1846FFF7ECFFF8607B68F0
:10477000012202FA03F3F868194600F03BF81037FB
:10478000BD4680BD80B584B000AF78603B1D184643
:10479000FFF7D8FFF8607B68012202FA03F3F8689C
:1047A000194600F035F81037BD4680BD80B584B09D
:1047B00000AF78603B1D1846FFF7C4FFF860F8684B
:1047C00000F00AF802467B6822FA03F303F00103C3
:1047D00018461037BD4680BD80B483B000AF786006
:1047E0007B68D3F8103518460C37BD465DF8047B5E
:1047F000704700BF80B483B000AF786039607B68D9
:104800003A68C3F808250C37BD465DF8047B70474D
:1048100080B483B000AF786039607B683A68C3F8D1
:104820000C250C37BD465DF8047B704780B485B01D
:1048300000AF7860254BFB607B68002B40D0244B99
:104840001A68F9687B6800BF00BF00BF00BF00BFE7
:1048500000BF00BF00BF8A422FD000BF00BF00BF13
:1048600000BF00BF00BF00BF00BF00BF00BF00BF50
:1048700000BF00BF00BF00BF00BF00BF00BF00BF40
:1048800000BF00BF00BF00BF00BF00BF00BF00BF30
:1048900000BF00BF00BF00BF00BF00BF00BF00BF20
:1048A00000BF00BF00BF00BF00BF00BF00BF00BF10
:1048B00000BF00BF00BF00BF00BF013BC3D17B6092
:1048C0001437BD465DF8047B704700BF0024F40038
:1048D000D042002080B485B000AF78600323FB6035
:1048E0007B6803F00103002B02D04FF40243FB600E
:1048F0007B6803F00203002B02D048F20123FB6027
:104900007B6803F00403002B02D048F20223FB6013
:10491000FB6818461437BD465DF8047B704700BF3E
:1049200080B584B000AF78604FF0A0437A68126819
:1049300002F5E07240F20C6143F822104FF0A04300
:104940007A68526802F5E07240F20C6143F8221076
:104950007B681B681846FFF701FF7B685B68184699
:10496000FFF7FCFE4FF0A0437A68126802F5E07290
:1049700040F20D6143F822104FF0A0437A6852686C
:1049800002F5E07240F20D6143F822100420FFF7B7
:104990004DFF0023FB601FE07B685B681846FFF754
:1049A00005FF0346002B04D0FB68002B00D123E059
:1049B00015E07B681B681846FFF7E4FE0420FFF74C
:1049C00035FF7B681B681846FFF7C8FE0420FFF719
:1049D0002DFFFB680133FB60FB68082BDCDD7B6887
:1049E0005B681846FFF7CEFE0420FFF71FFF7B68C9
:1049F0005B681846FFF7B2FE1037BD4680BD00BFAA
:104A000080B588B000AFF860B9607A603B60FB6841
:104A10001B791A4613469B001344DB00354A1344A6
:104A2000FB61FB6993F82230002B03D00823BB61A4
:104A3000BB695AE0FB697A681A60FB693A685A6098
:104A4000FB6900229A60FB69002283F82520FB693C
:104A5000002283F82420BB689A7BFB6983F8272017
:104A6000BB685B7B002B02D0B868FFF759FF4FF0A3
:104A7000A043BA68126802F5E07240F20C6143F894
:104A800022104FF0A043BA68526802F5E07240F27B
:104A90000C6143F82210FB681B687B61BB681A68D5
:104AA000BB685B68786911461A46FFF7BBFDBB68B7
:104AB0009B6878691946FFF7C9FDFB691B68002BE5
:104AC0000CD0FB681B681846FFF72CFE03461A46FD
